:100000000C9458000C9480000C9480000C94800098
:100010000C9480000C9480000C9480000C94800060
:100020000C9480000C9480000C9480000C94800050
:100030000C9480000C9480000C9480000C94800040
:100040000C94BA020C9480000C9480000C948000F4
:100050000C9480000C9480000C9480000C94800020
:100060000C9404030C94800000000000250028007C
:100070002B00040404040404040402020202020229
:10008000030303030303010204081020408001025C
:1000900004081020010204081020000000080002DB
:1000A000010000030407000000000000000023041A
:1000B00011241FBECFEFD8E0DEBFCDBF11E0A0E01E
:1000C000B1E0E6E9FAE002C005900D92A832B1076E
:1000D000D9F721E0A8E2B1E001C01D92AE3FB2071E
:1000E000E1F710E0C8E5D0E004C02197FE010E94CE
:1000F0004305C735D107C9F70E9444040C9449054C
:100100000C94000090E0FC01E656FF4F2491FC01A6
:10011000EA57FF4F3491FC01EE58FF4FE491EE2374
:10012000B1F0222339F02330E9F090F4213001F1CD
:10013000223011F1F0E0EE0FFF1FE859FF4FA591BB
:10014000B4918FB7F894EC913E2B3C938FBF0895F8
:100150002730A9F02830C9F0243061F78091800061
:100160008F7D03C0809180008F7780938000E2CFE5
:1001700084B58F7784BDDECF84B58F7DFBCF809132
:10018000B0008F778093B000D5CF8091B0008F7D85
:10019000F9CF08950895AF92BF92CF92DF92EF9278
:1001A000FF920F931F93CF93DF936C017B018B0121
:1001B000040F151FEB015E01AE18BF08C017D10771
:1001C00059F06991D601ED91FC910190F081E02DFB
:1001D000C6010995892B79F7C501DF91CF911F9150
:1001E0000F91FF90EF90DF90CF90BF90AF90089568
:1001F0003FB7F8948091D6019091D701A091D80192
:10020000B091D90126B5A89B05C02F3F19F00196E2
:10021000A11DB11D3FBFBA2FA92F982F8827BC0160
:10022000CD01620F711D811D911D42E0660F771F88
:10023000881F991F4A95D1F708958F929F92AF9288
:10024000BF92CF92DF92EF92FF924B015C010E942E
:10025000F8006B017C010E94F8006C197D098E0981
:100260009F09683E734081059105A8F321E0821A39
:100270009108A108B10888EEC80E83E0D81EE11CE1
:10028000F11C81149104A104B10429F7FF90EF90AF
:10029000DF90CF90BF90AF909F908F90089585EDA5
:1002A0008093BC008091BC0084FDFCCF1092E001E3
:1002B000089520918A01260F3327331F21323105FB
:1002C000ECF42091E001FC0190E080E0243069F042
:1002D00082E00895A0918A012191AC0146595E4FB8
:1002E000A40FB52FB11D2C930196861798F380911A
:1002F0008A01680F60938A0180E0089581E0089583
:100300000895E091E4018091E301E81730F4F0E012
:10031000E65BFE4F808190E008958FEF9FEF089598
:100320009091E4018091E3012FEF3FEF981748F49B
:10033000E92FF0E0E65BFE4F208130E09F5F909375
:10034000E401C90108958091E3019091E401891BC2
:10035000990B0895CF92DF92EF92FF920F931F9324
:10036000CF93DF937C01CB018A01209149012223A5
:1003700089F0EB016B01C40ED51ECC15DD0569F0CB
:100380006991D701ED91FC910190F081E02DC701B9
:100390000995F3CF642F0E945901C801DF91CF91D5
:1003A0001F910F91FF90EF90DF90CF900895CF9322
:1003B000DF931F92CDB7DEB76983209149012223D5
:1003C000F9F02091E101203258F021E030E0FC0109
:1003D0003383228390E080E00F90DF91CF910895E6
:1003E0008091E201E82FF0E0E75DFE4F9981908374
:1003F0008F5F8093E2018093E10181E090E0ECCF98
:1004000061E0CE0101960E945901F7CFCF93FC0124
:10041000C48121E020934901C09328011092E20198
:100420001092E1018485682B85EE91E00E94D7014E
:100430009091E101913208F03FC08091E00181117B
:10044000FCCF82E08093E00181E08093DF018FEFB9
:100450008093AD011092CF019093CE01A9E2B1E05B
:10046000EEEAF1E080E098132FC01092D001809165
:10047000D001CC0FC82BC093D0018091DE01813018
:1004800039F51092DE018091D0018093BB008091FC
:10049000BC0083FDF8CF85EC8093BC008091E00127
:1004A0008230E1F38091AD018F3F31F08091AD0159
:1004B000803211F08091AD011092E2011092E101C1
:1004C00010924901CF9108952D9121938F5FCBCF49
:1004D00085EEE2CF089590E080E008950F931F939A
:1004E000CF938C01C62F0E9406026C2F6460C80156
:1004F0000E9406026C2F6B7FC8010E94060283ECEB
:1005000090E00197F1F7CF911F910F9108950F930C
:100510001F93CF93DF938C01D62FC42F607F642B62
:100520000E946E0280E1D89FB00111246C2BC8019B
:10053000DF91CF911F910F910C946E0240E060E823
:1005400081EF91E00C94870240E061E081EF91E05F
:100550000E9487028BE39FE10197F1F78091FA01F6
:1005600081110C949E02089541E00E94870281E06F
:1005700090E008951F920F920FB60F9211242F93BF
:100580003F938F939F93AF93BF938091D2019091AC
:10059000D301A091D401B091D5013091D10123E0D4
:1005A000230F2D3758F50196A11DB11D2093D101C0
:1005B0008093D2019093D301A093D401B093D5013D
:1005C0008091D6019091D701A091D801B091D90125
:1005D0000196A11DB11D8093D6019093D701A093E0
:1005E000D801B093D901BF91AF919F918F913F9165
:1005F0002F910F900FBE0F901F90189526E8230F94
:100600000296A11DB11DD2CF1F920F920FB60F926D
:1006100011242F933F934F935F936F937F938F9307
:100620009F93AF93BF93EF93FF938091B900887F1F
:10063000803609F44AC0F0F5883209F4A7C018F5ED
:10064000803109F49BC0B8F4882309F4F9C08830DC
:1006500009F494C0FF91EF91BF91AF919F918F9159
:100660007F916F915F914F913F912F910F900FBEAE
:100670000F901F901895883109F488C0803251F787
:100680008093AD0114C0803409F49DC040F48033E0
:10069000B9F38833F9F68093AD0185ECB0C08035AD
:1006A00009F485C0883509F496C0883499F60E940B
:1006B0004F01D0CF883909F48CC038F5883729F03C
:1006C00050F4883611F0803729F683E08093E001FA
:1006D0001092AC0157C0883809F47BC0803919F0FA
:1006E000803809F0B7CF8091AC01803208F071C03A
:1006F000E091AC0181E08E0F8093AC018091BB0052
:10070000F0E0E457FE4F80833DC0803B39F0E0F4D9
:10071000803A09F479C0883A09F09CCF84E080934C
:10072000E00110928B0110928A01E091DC01F091BE
:10073000DD01099580918A0181110FC081E08093CC
:100740008A0110926A0109C0803C09F4A6CF883C56
:1007500009F4A3CF883B09F07DCFE0918B0181E0C4
:100760008E0F80938B01F0E0E659FE4F80818093DD
:10077000BB0090918B0180918A0129C08091D001AA
:100780008093BB0085EC8093BC0064CF9091CF0137
:100790008091CE01981758F5E091CF0181E08E0F3E
:1007A0008093CF01F0E0E255FE4F8081E9CFE091E8
:1007B000CF0181E08E0F8093CF018091BB00F0E0EC
:1007C000E255FE4F80839091CF018091CE01981722
:1007D000C8F285E8D8CFE091CF0181E08E0F8093F9
:1007E000CF018091BB00F0E0E255FE4F8083809105
:1007F000DF0181115CCF81E08093DE0184EA809388
:10080000BC001092E00126CF85EC8093BC001092D2
:10081000E0018091AC01803230F4E091AC01F0E075
:10082000E457FE4F10826091AC0170E0E091DA0174
:10083000F091DB018CE891E009951092AC010ACFB0
:100840001092AD0134CFE5EEF1E01382128288EE12
:1008500093E0A0E0B0E084839583A683B78384E02F
:1008600091E091838083E1EFF1E01382128286E1CF
:1008700091E091838083118687E2848380E182877F
:1008800082E0838714860895789484B5826084BD5D
:1008900084B5816084BD85B5826085BD85B5816084
:1008A00085BD80916E00816080936E001092810002
:1008B00080918100826080938100809181008160BD
:1008C000809381008091800081608093800080917E
:1008D000B10084608093B1008091B000816080930A
:1008E000B00080917A00846080937A0080917A00D1
:1008F000826080937A0080917A00816080937A0090
:1009000080917A00806880937A001092C1001092E2
:10091000E4011092E3011092E2011092E1011092C1
:10092000E00181E08093DF011092DE0182E10E940C
:10093000820083E10E9482008091B9008E7F8093C3
:10094000B9008091B9008D7F8093B90088E48093CD
:10095000B80085E48093BC0089EC90E09093DD01C1
:100960008093DC018AEC90E09093DB018093DA01C4
:100970001092F6018091FC01823018F098E090937B
:10098000F6018093F90162E370E080E090E00E945C
:100990001D016091FD0181EF91E00E94060268EE69
:1009A00073E080E090E00E941D0160E381EF91E040
:1009B0000E946E02CBE4D6E4CE010197F1F760E32A
:1009C00081EF91E00E946E022197F1F760E381EFE1
:1009D00091E00E946E0283E592E00197F1F760E2F8
:1009E00081EF91E00E946E026091F601606240E04A
:1009F00081EF91E00E94870284E08093F70140E05C
:100A00006CE081EF91E00E9487020E94A40282E0E4
:100A10008093F80140E066E081EF91E00E94870258
:100A200040E062E081EF91E00E9487028BE39FE16A
:100A30000197F1F788E08093FD0160E081EF91E09C
:100A40000E9406020E949E0249E050E06EE171E0C1
:100A500081EF91E00E94CB0068EE73E080E090E0CF
:100A60000E941D010E94A402C0E0D0E00E949E02EC
:100A700068EE73E080E090E00E941D012097B1F3E2
:100A80000E940000F3CFEE0FFF1F0590F491E02DC0
:060A90000994F894FFCF69
:100A960000000000D701AA016B028001A3019001AA
:100AA600810100000000B402CB006B026A024865B7
:080AB6006C6C6F204D445400EC
:00000001FF
